:020000040000FA
:10000000803102288731ED2F603031008D008F0163
:100010009101013093009201080000307005F80052
:1000200000307105F90080307205FA007F307305E9
:10003000FB007B087A0479047804031D202821281A
:1000400029280030F3000030F2000030F1000030C9
:10005000F00000307405F80000307505F9008030BC
:100060007605FA007F307705FB007B087A04790477
:100070007804031D3C283D2845280030F700003057
:10008000F6000030F5000030F40077087306031D19
:10009000532876087206031D532875087106031D40
:1000A0005328740870060319562857285928031036
:1000B0005C2803145C285C2808002100BE00BA01FB
:1000C000BB0120005F082100D00020005E08210055
:1000D000CF0020005D082100CE0020005C08210038
:1000E000CD0050082000B80021004F082000B700C4
:1000F00021004E082000B60021004D082000B50068
:100100000030BC000030BB000030BA000030B90045
:100110009331D623803103188E288F28A9280130E7
:100120002100BA000030BB005008F3004F08F20075
:100130004E08F1004D08F0009F311D2780317308F3
:100140002100D0007208CF007108CE007008CD00E9
:10015000A9282100D301D40122002B082100C100CD
:1001600022002A082100C0003A083B04031DB928D8
:10017000BA28C02822002E1DBE28BF28E728C02884
:1001800021003A083B04031DC628C728CC282B3081
:10019000A4000030A500D1282D30A4000030A50017
:1001A000D12824082000E10021005308A03E860049
:1001B0000130870020006108810001302100D30751
:1001C0000030D43DFF30C007FF30C13DE72821009B
:1001D0005008F3004F08F2004E08F1004D08F000FF
:1001E0009231BF22803170037104031DF828F92871
:1001F000602920006008BF3EE100FF300318003096
:10020000E200003062021A3003196102031C09295E
:100210000B2901300C290030E300E40163082100C0
:10022000A600200064082100A700272920006008FC
:10023000E100E2016108F0006208F1009F316127EE
:10024000803171082100A7007008A6002729260820
:10025000270403192C292D2937292830F00098303C
:10026000F1005308A03E9F31DC2780314229303015
:10027000F0009830F10021005308A03E9F31DC27A8
:1002800080314229FD302100C007FF30C13DA03040
:100290002000E1006108A400210041082000A60020
:1002A000210040082000A50021003E0891313621A0
:1002B000803120002508DD002408DC00EC2FEC2F25
:1002C00021005008F3004F08F2004E08F1004D08DD
:1002D000F0009231BF22803170087104031D712932
:1002E0007229D92920006008BF3EE100FF300318C1
:1002F0000030E200003062021A3003196102031C70
:1003000082298429013085290030E300E401630853
:100310002100A800200064082100A900A0292000D5
:100320006008E100E2016108F0006208F1009F311D
:100330006127803171082100A9007008A800A02958
:10034000280829040319A529A629B0292C30F00072
:100350009830F1005308A03E9F31DC278031BB2943
:100360003430F0009830F10021005308A03E9F3156
:10037000DC278031BB29FD302100C007FF30C13DA3
:10038000A0302000E1006108A40021004108200005
:10039000A600210040082000A50021003E08913160
:1003A0003621803120002508DD002408DC00EC2FF8
:1003B000EC2F3F302100D8008030D7000030D6002D
:1003C0000030D500D101D2015008F3004F08F200EF
:1003D0004E08F1004D08F0000030F7000030F60044
:1003E0000030F5000030F40080310D20803103181A
:1003F000FA29FB29C52A2E2A2E2A41302000A300E3
:100400002030A2000030A1000030A00021005808D8
:100410002000A700210057082000A6002100560850
:100420002000A500210055082000A4008B311C23CA
:100430008031200023082100D8002000220821005C
:10044000D700200021082100D6002000200821002C
:10045000D5000130D1070030D23D2E2A21005008AE
:100460002000B80021004F082000B70021004E08EE
:100470002000B60021004D082000B5004130A30047
:100480002030A2000030A1000030A0002100580858
:100490002000A700210057082000A60021005608D0
:1004A0002000A500210055082000A4008B311C234A
:1004B000803120002308BC002208BB002108BA00BC
:1004C0002008B9009331D62380310318682A692A9D
:1004D000FD299C2A9C2A41302000B1002030B00028
:1004E0000030AF000030AE00210058082000B500F9
:1004F000210057082000B400210056082000B30056
:10050000210055082000B2009631212680312000BC
:1005100031082100D800200030082100D700200039
:100520002F082100D60020002E082100D500FF3022
:10053000D107FF30D23D9C2A210050082000B8008E
:1005400021004F082000B70021004E082000B6000F
:1005500021004D082000B500210058082000BC00F3
:10056000210057082000BB00210056082000BA00D7
:10057000210055082000B9009331D6238031031C97
:10058000C22AC32A6B2AC52AC52A20006008E100B6
:10059000E2016108F6006208F700903182208031A4
:1005A00076082000E30063082100C2004208200012
:1005B000E10061082100BF0067304206031DE12A07
:1005C000E22A0C2B22002C082D04031DE82AE92A1C
:1005D000ED2A0130AC000030AD002D08803A20003B
:1005E000E10080306102031DF82A013022002C0254
:1005F0000318FB2AFC2A022B06302100BC00003025
:10060000BD00202B22002D082100BD0022002C0857
:100610002100BC00202B202B2200AD1B102B112B06
:10062000192B2D082100BD0022002C082100BC0040
:10063000202B06302100BC000030BD00202B202BD9
:1006400067304206031D252B262B5F2B5208803A6C
:100650002000E1007F306102031D312BFC302100BE
:100660005102031C342B352B582B21003C08FF3E34
:100670002000E100FF3021003D3D2000E200620843
:10068000803AE30021005208803A20006302031DF3
:100690004D2B2100510820006102031C502B512BCF
:1006A000582B66302000E10061082100BF005F2B5D
:1006B00065302000E10061082100BF005F2B3D088C
:1006C000B5003C08B40067304206031D682B692B57
:1006D000742B66303F06031D6E2B6F2B792BD21FB8
:1006E000722B732B792B742B0130B4070030B53D7E
:1006F000792B66303F06031D7E2B7F2B9A2BD21F52
:10070000822B832B8E2B3F30D8008030D7000030D7
:10071000D6000030D500D101D2018E2B67304206C1
:100720000319932B942B9A2B5108B4075208B53D0B
:100730009A2B9A2BCB01CC015008C6004F08C5005C
:100740004E08C4004D08C3005808A3005708A20073
:100750005608A1005508A0007B2C21005808200055
:10076000B100210057082000B000210056082000E9
:10077000AF00210055082000AE00210046082000EF
:10078000B500210045082000B400210044082000E5
:10079000B300210043082000B200963121268031A9
:1007A00020003108CB003008CA002F08C9002E08ED
:1007B000C80088312820803120004B082100CA0061
:1007C00020004A082100C900200049082100C80073
:1007D000200048082100C7004A08F3004908F20039
:1007E0004808F1004708F000933142238031710836
:1007F0002100B9007008B8004A082000A7002100B5
:1008000049082000A600210048082000A50021007A
:1008100047082000A400210058082000A300210060
:1008200057082000A200210056082000A100210046
:1008300055082000A0008B311C23803120002308A4
:10084000B8002208B7002108B6002008B500210032
:1008500046082000BC00210045082000BB00210004
:1008600044082000BA00210043082000B9009F314D
:1008700099278031200038082100C6002000370861
:100880002100C500200036082100C40020003508E2
:100890002100C30041302000B1002030B000003002
:1008A000AF000030AE00210058082000B500210044
:1008B00057082000B400210056082000B300210092
:1008C00055082000B20096312126803120003108E1
:1008D0002100D800200030082100D70020002F0878
:1008E0002100D60020002E082100D5000130CB07C2
:1008F0000030CC3D7B2C4C08803A2000E1002100E8
:100900003508803A20006102031D892C210034083B
:100910004B02031C8C2C8D2CAD2B8E2C40302000D8
:10092000A300A030A2000030A1000030A0002100F0
:1009300058082000A700210057082000A600210029
:1009400056082000A500210055082000A4008B3186
:100950001C238031200023082100CA002000220827
:100960002100C900200021082100C8002000200823
:100970002100C70046082000B800210045082000DB
:10098000B700210044082000B600210043082000E1
:10099000B50021004A082000BC00210049082000C1
:1009A000BB00210048082000BA00210047082000B1
:1009B000B9009331D62380310318DF2CE02CEA2CC8
:1009C00000302100CA000030C9000030C8000030EB
:1009D000C700112D21004608F3004508F200440825
:1009E000F1004308F0004A08F7004908F6004808FB
:1009F000F5004708F40080310D208031031C012DE3
:100A0000022D112D21003818062D072D112D003033
:100A1000CA000030C9000030C8000030C700112DE6
:100A2000112D21004A08F3004908F2004808F1009E
:100A30004708F0005008F7004F08F6004E08F50090
:100A40004D08F4008D318725803173082100C600E0
:100A50007208C5007108C4007008C3002308D800DC
:100A60002208D7002108D6002008D50065303F06AF
:100A700003193B2D3C2D412D5208B7005108B600FB
:100A8000432DB601B701B201B301B001B101CB01F1
:100A9000CC01952E210058082000B10021005708F4
:100AA0002000B000210056082000AF0021005508AA
:100AB0002000AE00210046082000B50021004508B6
:100AC0002000B400210044082000B30021004308A6
:100AD0002000B20096312126803120003108CB0061
:100AE0003008CA002F08C9002E08C8008831282005
:100AF000803120004B082100CA0020004A08210054
:100B0000C900200049082100C80020004808210031
:100B1000C7004A08F3004908F2004808F1004708F6
:100B2000F00093314223803171082100B900700830
:100B3000B80022002E1A9D2D9E2DB42D21003808BC
:100B40003904031DA42DA52DB42D67304206031DC5
:100B5000AA2DAB2DB42DB71FAE2DAF2DB42D013066
:100B6000B0070030B13D122E210032083304031DBE
:100B7000BA2DBB2DF42DB71FBE2DBF2DF42D2E3059
:100B80002000E10021005308A03E860001308700CC
:100B900020006108810001302100D3070030D43DDE
:100BA000FF30C007FF30C13D0130B2000030B3005C
:100BB000F42DF42D30302000E10021005308A03E38
:100BC000860001308700200061088100013021008B
:100BD000D3070030D43DFF30C007FF30C13DFF30A8
:100BE000B007FF30B13DF42D30083104031DF92D5D
:100BF000FA2DDA2DFB2D3808303E2000E1002100CF
:100C00005308A03E86000130870020006108810063
:100C100001302100D3070030D43DFF30C007FF3042
:100C2000C13D122E4A082000A700210049082000DB
:100C3000A600210048082000A50021004708200048
:100C4000A400210058082000A3002100570820001C
:100C5000A200210056082000A10021005508200014
:100C6000A0008B311C23803120002308B80022080B
:100C7000B7002108B6002008B50021004608200072
:100C8000BC00210045082000BB00210044082000D2
:100C9000BA00210043082000B9009F319927803114
:100CA000200038082100C600200037082100C500B8
:100CB000200036082100C400200035082100C300B0
:100CC00041302000B1002030B0000030AF000030D3
:100CD000AE00210058082000B50021005708200070
:100CE000B400210056082000B30021005508200060
:100CF000B200963121268031200031082100D80031
:100D0000200030082100D70020002F082100D60045
:100D100020002E082100D500FF30B607FF30B73D78
:100D20000130CB070030CC3D952E4C08803A200096
:100D3000E10021003508803A20006102031DA32E46
:100D4000210034084B020318A62EA72EB92E21002D
:100D50005408803A2000E10080306102031DB32E68
:100D60004B3021005302031CB62EB72E4A2DB92E4C
:100D7000B92E210032083304031DBF2EC02ED72EFA
:100D800022002E1EC42EC52ED72E2E302000E100AC
:100D900021005308A03E8600013087002000610832
:100DA000810001302100D3070030D43DD72E21002F
:100DB0005308A03E860001308700810165303F0660
:100DC000031DE32EE42ED42F4F30CB000030CC0097
:100DD0004B08A03E8600013087008101BA01BB01AB
:100DE000D21FF32EF42EFE2E0130BA000030BB00CD
:100DF000D109D209D10A0319D20AFE2E0230BC0051
:100E00000030BD003A2FFF302100CB07FF30CC3D32
:100E10000A30F0000030F1005208F3005108F200EF
:100E20009131922180317008303E2000E100210094
:100E30004B08A03E86000130870020006108810039
:100E40000A30F0000030F10021005208F300510890
:100E5000F20092315622803171082100D2007008D0
:100E6000D100FF30BC07FF30BD3DFF30C007FF3071
:100E7000C13D3A2F51085204031D3F2F402F032F2D
:100E80003D08803A2000E10080306102031D4B2FB5
:100E9000013021003C0203184E2F4F2F032F502FFB
:100EA000FF302100CB07FF30CC3D3A083B04031D47
:100EB0005A2F5B2F602F2B30AA000030AB00652F1C
:100EC0002D30AA000030AB00652F2A082000E10079
:100ED00021004B08A03E86000130870020006108F9
:100EE0008100FF302100C007FF30C13DFF30CB073C
:100EF000FF30CC3D20006008BF3EE100FF3003180A
:100F00000030E200003062021A3003196102031C53
:100F10008A2F8C2F01308D2F0030E300E40163080D
:100F20002100AE00200064082100AF00A82F20009F
:100F30006008E100E2016108F0006208F1009F3101
:100F40006127803171082100AF007008AE00A82F22
:100F50002E082F04031DAD2FAE2FB32F6530AC002C
:100F60000030AD00B82F4530AC000030AD00B82FD8
:100F70002C082000E10021004B08A03E8600013033
:100F80008700200061088100FF302100C007FF308A
:100F9000C13D4B08A03EF0000130F1005308A03ED7
:100FA0009F31DC278031D42FA0302000E100610880
:100FB000A400210041082000A600210040082000D4
:100FC000A50021003E0891313621803120002508FE
:100FD000DD002408DC00EC2F080020308400013004
:100FE00085001030903101208731A030840001301D
:100FF0008500503090310120873120009531392D06
:1010020020009601970101309800FF309100FF30D7
:101012009200BE3093009C303E00CE00FF30C300F1
:10102200FF30B800E501C401B901CF01BA01C50121
:10103200D001FF30BB00FF30C600FF30D1001030BE
:10104200A00011303D00CB001530930008002200B3
:1010520023082000DB00220022082000DA00220000
:1010620021082000D900220020082000D8004B08C7
:10107200DB004A08DA004908D9004808D8005808B5
:10108200CC005908CD005A08CE005B08CF001730BB
:10109200CF36CE0CCD0CCC0C890B4928FF304C0539
:1010A200D00000304D05D1005008813ED600FF30FF
:1010B200513DD7005708803ACC0080304C02031DC6
:1010C200642817305602031C6728682869281629E5
:1010D2002000D71B6D286E28CC28FF30CC00FF30B3
:1010E200CD007F30CE000030CF00560A7C28CF37AB
:1010F200CE0CCD0CCC0C890B78284F08D5004E08AD
:10110200D4004D08D3004C08D20058085205CC0038
:1011120059085305CD005A085405CE005B08550501
:10112200CF004F084E044D044C04031D99289A2801
:101132009B2816295808CC005908CD005A08CE0021
:101142005B08CF001F30CF36CE0CCD0CCC0C890BF8
:10115200A4284F084E044D044C040319B128B228A8
:10116200BB285208D8075308D93D5408DA3D550820
:10117200DB3DBB285209CC005309CD005409CE00F7
:101182005509CF004C08D8054D08D9054E08DA0597
:101192004F08DB050D295808CC005908CD005A0824
:1011A200CE005B08CF001F30CF36CE0CCD0CCC0C5E
:1011B200890BD5284F084E044D044C04031DE22828
:1011C200E328EC280030DB000030DA000030D900E0
:1011D2000030D8000D295808CC005908CD005A0813
:1011E200CE005B08CF000130CC35CD0DCE0DCF0D3A
:1011F200890BF5284F084E044D044C0403190229AB
:1012020003290D29BF30DB008030DA000030D9001D
:101212000030D8000D290D295B08CB005A08CA00FE
:101222005908C9005808C800162908002100E3001F
:101232002000650886008701403FE700413FE80043
:1012420067088400680885001200253A031D2A29D0
:101252002B29F22A65088600870101308107413176
:101262000318810A2200AA01AB01AE01AF01FF30CF
:10127200AC00FF30AD002000650886008701403FCA
:10128200E700413FE800670884006808850000081D
:10129200E900EA016908F6006A08F7009031822045
:1012A200893176082000EB006B082100DF005F081F
:1012B20003195C295D29A22920006508860087019F
:1012C200403FE700413FE8000130670784006808BB
:1012D2000318680A85000008E900EA016908F600B7
:1012E2006A08F70090318220893176082000EB00ED
:1012F2006B082100E0006008031980298129A229D6
:101302002000650886008701403FE700413FE80072
:1013120002306707840068080318680A850000081D
:10132200E900EA016908F6006A08F70090318220B4
:10133200893176082000EB006B082100E100A22928
:10134200A22966305F06031DA729A829F5292000D6
:10135200650886008701403FE700413FE8006708D3
:101362008400680885000008E90069082100E2009D
:10137200200065088600870101308107413103188A
:10138200810A660886000130870001088400850111
:1013920004308107003F2100DB00013FDC00023FF7
:1013A200DD00033FDE005E082000DF0021005D0853
:1013B2002000DE0021005C082000DD0021005B0827
:1013C2002000DC00210062082000E7006708E0003E
:1013D2002100630880315D20893120005D08E6002C
:1013E2005C08E5001B2B1B2B3830F0009830F10015
:1013F2000230F2000030F300DF309131EF21893109
:1014020070087104031D062A072AB82A20006508FD
:1014120086008701403FE700413FE800013067074F
:10142200840068080318680A85000008E900690852
:101432002100E2002000650886008701403FE700A6
:10144200413FE80067088400680885000008BF3E45
:10145200E900FF3003180030EA0000306A021A3057
:1014620003196902031C362A382A0130392A00304E
:10147200EB00EC016B082100D90020006C08210070
:10148200DA005F2A2000650886008701403FE700F6
:10149200413FE80067088400680885000008E90009
:1014A200EA016908F0006A08F1009F316127893179
:1014B20071082100DA007008D9005F2A59085A041D
:1014C2000319642A652A792A2000660886000130F9
:1014D200870001088400850104308107003F210054
:1014E200DB00013FDC00023FDD00033FDE008D2A0E
:1014F200200066088600013087000108840085010B
:1015020004308107003F2100DB00013FDC00023F85
:10151200DD00033FDE008D2A20006508860087017A
:101522000230810741310318810A21005E08200040
:10153200DF0021005D082000DE0021005C082000A1
:10154200DD0021005B082000DC0021006208200091
:10155200E7006708E0002100630880315D208931DF
:1015620020005D08E6005C08E5001B2B1B2B200019
:10157200650886008701403FE700413FE8006708B1
:101582008400680885001200253A031DC92ACA2A68
:10159200E62A650886008701013081074131031878
:1015A200810A2530F2000030F30021006308200098
:1015B200E7006708F4009031F22089310130200001
:1015C200E5000030E6001B2B1B2B65088600870117
:1015D2000130810741310318810AE501E6011B2B25
:1015E2001B2B650886008701403FE700413FE8006A
:1015F20067088400680885000008E900EA016908B4
:10160200F2006A08F300210063082000EB006B0877
:10161200F4009031F22089312000650886008701AC
:101622000130810741310318810A0130E5000030A1
:10163200E6001B2B0800200023088039F9007908F6
:10164200A8002335F9007908AE00A21F292B2A2B06
:101652002C2B2E142C2B2E080319302B312B412B23
:101662002E0A031D352B362B3F2B0030A3000030F2
:10167200A2000030A1000030A0003F2BA2174A2B8D
:101682000030A3000030A2000030A1000030A00012
:101692004A2B27088039F9007908A8062735F9006E
:1016A2007908AD00A61F562B572B592B2D14592BF9
:1016B2002D0803195D2B5E2B6E2B2D0A031D622B49
:1016C200632B6C2B0030A7000030A6000030A50071
:1016D2000030A4006C2BA617772B0030A700003037
:1016E200A6000030A5000030A400772B2D080319B6
:1016F2007B2B7C2B822B2E08031D802B812B8C2B8A
:10170200822B0030A3000030A2000030A100003084
:10171200A000862D862D2008F9007908F000260801
:10172200903107208B3171082000B4007008B3009B
:101732003308F900FA01FB01FC017C08AC007B08CC
:10174200AB007A08AA007908A9003408F900FA0166
:10175200FB01FC017C08B2007B08B1007A08B000F2
:101762007908AF002108F9007908F00025089031C6
:1017720007208B3171082000B4007008B3003308D1
:10178200F900FA01FB01FC017908A9077A08AA3DD0
:101792007B08AB3D7C08AC3D3408F900FA01FB0143
:1017A200FC017908AF077A08B03D7B08B13D7C089F
:1017B200B23D2208F9007908F00024089031072090
:1017C2008B3171082000B4007008B3003308F900AF
:1017D200FA01FB01FC017908A9077A08AA3D7B08F6
:1017E200AB3D7C08AC3D3408F900FA01FB01FC0179
:1017F2007908AF077A08B03D7B08B13D7C08B23D5D
:101802000830A935AA0DAB0DAC0D890B022C2108AD
:10181200F9007908F0002408903107208B31710813
:101822002000B4007008B3003308A9073408AA3DA9
:101832000030AB3DAC3D2008F9007908F0002508E6
:10184200903107208B3171082000B4007008B3007A
:101852003308A9073408AA3D0030AB3DAC3D08303F
:10186200A935AA0DAB0DAC0D890B312C2008F9005E
:101872007908F0002408903107208B31710820008C
:10188200B4007008B3003308A9073408AA3D003039
:10189200AB3DAC3D2108F9007908F00026089031F3
:1018A20007208B3171082000B4007008B3003308A0
:1018B200AF073408B03D0030B13DB23D2208F90017
:1018C2007908F0002508903107208B31710820003B
:1018D200B4007008B3003308AF073408B03D0030DD
:1018E200B13DB23D2208F9007908F0002608903196
:1018F20007208B3171082000B4007008B300330850
:10190200F9003408FA00FB01FC010830F935FA0D40
:10191200FB0DFC0D890B872C7908AF077A08B03DC7
:101922007B08B13D7C08B23D2908F9002A08FA007B
:101932002B08FB002C08FC001830FC36FB0CFA0CC0
:10194200F90C890B9E2C7908AF077A08B03D7B0809
:10195200B13D7C08B23D0830A935AA0DAB0DAC0DE6
:10196200890BAD2C2E082D07F900FA01FA0D790822
:10197200823EB300FF307A3DB400D82C0130AF353F
:10198200B00DB10DB20D890BC02CAC1FC92CCA2CE5
:10199200CC2C2F14CC2C0130A935AA0DAB0DAC0DDB
:1019A200890BCD2CFF30B307FF30B43DD82CB11FCB
:1019B200DB2CDC2CBF2CDD2CAD01AC1FE12CE22C8E
:1019C200022DFF302905F900FF302A05FA00FF3009
:1019D2002B05FB007F302C05FC007C087B047A047D
:1019E20079040319F52CF62CF92CAD01AD0A022D60
:1019F2002F1CFC2CFD2C022DAD01AD0A022D022D57
:101A0200022D2D080319062D072D312D0130AF07A8
:101A12000030B03D0030B13D0030B23D321C122DDD
:101A2200132D312D2F08F9003008FA003108FB0080
:101A32003208FC000130FD00FC37FB0CFA0CF90CFB
:101A4200FD0B1D2D7C08B2007B08B1007A08B000A6
:101A52007908AF000130B3070030B43D312D312D8C
:101A62003408803AF90080307902031D3A2DFF30A4
:101A72003302031C3D2D3E2D482D7F302000B20045
:101A82008030B1000030B0000030AF00792D20006E
:101A92003408803AF90080307902031D522D01305A
:101AA20033020318552D562D612D00302000B2004F
:101AB2000030B1000030B0000030AF00A801792D35
:101AC20020003308F9007908AE00FF30AF05FF307F
:101AD200B0057F30B1050030B2052E1C712D722D7C
:101AE200742DB117742D2E36F9007908B200792DB4
:101AF2002808F9007908B2043208A3003108A200CC
:101B02003008A1002F08A000862D08007308803934
:101B12002000A0002008F8007335A0002008FA0079
:101B2200F21F942D952D972D7A14972D7A0803196B
:101B32009B2D9C2DAD2D7A0A031DA02DA12DAA2D22
:101B42000030F3000030F2000030F1000030F0000D
:101B5200AA2DF217F301B62D0030F3000030F20087
:101B62000030F1000030F000B62D77088039A00077
:101B72002008F900790878060319C02DC12DC32D5C
:101B82007817C32D7735A0002008F900F61FCA2D5B
:101B9200CB2DCD2D7914CD2D79080319D12DD22D30
:101BA200E32D790A031DD62DD72DE02D0030F70045
:101BB2000030F6000030F5000030F400E02DF6179A
:101BC200F701EB2D0030F7000030F6000030F50091
:101BD2000030F4007A0879020318F02DF12D372E27
:101BE200781FF42DF52DFA2D8030A0002008F8067C
:101BF200FA2D7A08A0002008FB007908A00020082E
:101C0200FA007B08A0002008F9007008A000200854
:101C1200FB007408A0002008F0007B08A000200848
:101C2200F4007108A0002008FB007508A00020083D
:101C3200F1007B08A0002008F5007208A00020082F
:101C4200FB007608A0002008F2007B08A000200814
:101C5200F6007308A0002008FB007708A000200807
:101C6200F3007B08A0002008F700372EFB017A085A
:101C7200A000A101A009A109A00A0319A10A7908DB
:101C82002007A20021080318210AA3002308803A92
:101C9200A40080302402031D502E1A302202031C9D
:101CA200532E542E922E7308720471047004031D75
:101CB2005B2E5D2E01305E2E00302000A000200839
:101CC200FB000030F3000030F2000030F100003081
:101CD200F0007908A0002008FA00992E922E7B1CB1
:101CE200732E742E7B2E7B3601382000A000200834
:101CF200FB007E2E0310FB0C7E2E701C812E822E8A
:101D0200842EFB17842E01302000A000F337F20C42
:101D1200F10CF00CA00B872E0130A0002008FA076E
:101D2200922E79087A02031C972E982E702E992EE5
:101D3200781B9C2E9D2EDB2E7A08031DA12EA22E2F
:101D4200AC2E0030F3000030F2000030F100003021
:101D5200F000FF2FFF2F7408F0077508F13D760899
:101D6200F23D7708F33D731CB72EB82E832F7B1CF0
:101D7200BB2EBC2EC32E7B3601382000A0002008CB
:101D8200FB00C62E0310FB0CC62E701CC92ECA2ED9
:101D9200CC2EFB17CC2E01302000A000F337F20C22
:101DA200F10CF00CA00BCF2E0130A0002008FA0796
:101DB200832F832F7308803A2000A0007708803A8F
:101DC2002002031DEE2E76087202031DEE2E750808
:101DD2007102031DEE2E740870020318F12EF22E0A
:101DE2003E2FFF30A000FF30A100FF30A200FF30E5
:101DF200A3007408A4007508A5007608A600770859
:101E0200A7007009A8007109A9007209AA00730944
:101E1200AB00A80A0319A90A0319AA0A0319AB0AF3
:101E22002808A4072908A53D2A08A63D2B08A73D96
:101E32002408A0072508A13D2608A23D2708A33DA6
:101E42002308F3002208F2002108F1002008F00024
:101E52008030A0002008F806FB09FB0A7B08031D5E
:101E6200332F342F462F0130F0070030F13D003080
:101E7200F23D0030F33D462F462F7408F0027508FC
:101E8200F13B7608F23B7708F33B73087204710466
:101E92007004031D4D2F4E2F7D2F7B08031D522FE3
:101EA200532F7D2F0030F3000030F2000030F1009C
:101EB2000030F000FF2FFF2F7D2F0130F035F10DA4
:101EC200F20DF30D890B5F2FFB1F682F692F6A2F0D
:101ED20070147B1C6D2F6E2F712F0314FB0D742F4A
:101EE2000310FB0D742F7A080319782F792F7D2F99
:101EF2000130FA027D2F7D2FF21F802F812F5E2F5E
:101F0200832F832FF901FB1F872F882F9A2F7B089E
:101F12007F3903198D2F8E2F912FF901F90A9A2FEC
:101F2200701C942F952F9A2FF901F90A9A2F9A2F44
:101F32009A2F790803199E2F9F2FCF2F0130F00778
:101F42000030F13D0030F23D0030F33D731CAA2F0A
:101F5200AB2FCF2F70082000A0007108A1007208DB
:101F6200A2007308A3000130A400A337A20CA10CA5
:101F7200A00CA40BB62F2308F3002208F2002108BC
:101F8200F1002008F0007A0A0319C82FC92FCF2FB9
:101F92000130A0002008FA07CF2FCF2F7A0A0319A9
:101FA200D32FD42FDA2F7A08031DD82FD92FEA2F57
:101FB200DA2F0030F3000030F2000030F100003080
:101FC200F0007A08031DE62FE72FEA2FF801EA2F27
:101FD200EA2F7A1CED2FEE2FF02FF217F52F7F301C
:101FE2002000A0002008F2057A362000A000200878
:0E1FF200F300F81FFD2FFE2FFF2FF31708003E
:10200200640080010131890B02280034F800F401D8
:10201200F5017008F200F3017208F6007308F70088
:102022001228781C152816281A287608F40777082B
:10203200F53D0130F635F70D890B1B280310F80C1E
:102042007808031D25282628122827287508F1005C
:102052007408F0002C280800F7007708F2007208D4
:10206200F60038280130F2007208F707382877089E
:102072008600013087000108031D402841283328CB
:1020820042287608F2000130F300F209F309F20A5D
:102092000319F30A7708F4000130F5007208740797
:1020A200F0007308753DF100562808002000A300D7
:1020B200A101A20170282008FB00FC017B08F200AC
:1020C2007C08F3007A08FD007D08F4009031F220CC
:1020D200903101302000A1070030A23D7028210874
:1020E2002307FB007B088600013087000108FC0003
:1020F2007C08A0002008031D7F2880285C288128F6
:1021020008007608BF3EF800FF30773DF900003046
:1021120079021A3003197802031C902892280130A0
:1021220093280030FA00FB017A08FC007B08FD00CE
:10213200A6287708F1007608F0009F3161279031D8
:102142007108FD007008FC00A6287C087D040319B4
:10215200AB28AC28B42820307604F600003077048F
:10216200F700B428B42808002100E60020006E0819
:102172002100E80020006D082100E7002200A801EC
:10218200A901DD28E7302100E40064082000E50011
:102192006F082100E50065082000E60021006608BE
:1021A200893117219031200065082200A8072000FC
:1021B20066082200A93DDD2821006708840068081E
:1021C20085001200031DE628E728C328E82822001C
:1021D20029082000EE00220028082000ED00F12846
:1021E200080074080319F628F728FD287408031D4F
:1021F200FB28FC280229FD2872089E31F82690311E
:1022020035297408033E860087011600010403196C
:102212000B290C292A297408033E86008701403FB6
:10222200F500413FF600740A86008701403FF7003F
:10223200413FF8007808803AF9007608803A79023E
:10224200031D25297508770203182829292935290C
:102252002A29740A86008701013081074131031857
:10226200810A35293529352908002000AC002200D1
:102272002E1C3C293D29472920002C08A7002708AD
:10228200FA00240890315720913147292000A61BDB
:102292004B294C2951292608AB002508AA005329AD
:1022A200AA01AB01A801A90168292030F20000307F
:1022B200F30020002C08A7002708F4009031F22038
:1022C200913101302000A8070030A93D6829290872
:1022D200803AA7002B08803A2702031D72292A0898
:1022E2002802031C75297629562922002E187A29DC
:1022F2007B29842920002C08A7002708FA0024083B
:102302009031572091312000240890312D209131B5
:1023120020002A087007A4002B08713DA50091290E
:102322000800F601F31F962997299F29F209F3095C
:10233200F20A0319F30AF601F60A9F29F11FA229EC
:10234200A329A929F009F109F00A0319F10AA92917
:10235200700871040319AE29AF29DE29F501F50AC7
:10236200BC290130F035F10D890BB3290130F4009D
:102372007408F507BC29F11FBF29C029B229C22957
:10238200C22971087302031DC82970087202031C56
:10239200CB29CC29D1297008F2027108F33BD1294B
:1023A2000130F136F00C890BD2290130F502031D00
:1023B200DB29DC29C229DE29DE2976080319E22974
:1023C200E329E929F209F309F20A0319F30AE929CF
:1023D2007308F1007208F000EE290800F600760892
:1023E200F4007408F9007108F8007008F700013071
:1023F200F2020030F33B720A031D032A730A031D23
:10240200032A042A162AF001F101552A552A162A0E
:102412000130F4007408F9070130F7070030F83D85
:102422000130F2020030F33B162A79088600870158
:10243200010803191D2A1E2A3E2A770884007808FB
:10244200850012000319262A272A3E2A72087304DD
:1024520003192C2A2D2A3E2A770884007808850041
:102462000008F40079088600870101087406031940
:102472003B2A3C2A092A3E2A3E2A77088400780809
:1024820085000008F400F501F409F509F40A0319BE
:10249200F50A79088600870101087407F0007508BB
:1024A2000318750AF100552A0800F601F11F5A2A8D
:1024B2005B2A632AF009F109F00A0319F10AF6010D
:1024C200F60A632AF31F662A672A712AF209F309B8
:1024D200F20A0319F30A0130F4007408F606712AAD
:1024E200F701F801700871040319782A792AAE2AD3
:1024F200F501F50A862A0130F035F10D890B7D2AA6
:102502000130F4007408F507862AF11F892A8A2A05
:102512007C2A8C2A8C2A0130F735F80D890B8D2AFA
:1025220071087302031D972A70087202031C9A2A0B
:102532009B2AA12A7008F2027108F33B7714A12AA0
:102542000130F136F00C890BA22A0130F502031D8D
:10255200AB2AAC2A8C2AAE2AAE2A76080319B22AF2
:10256200B32AB92AF709F809F70A0319F80AB92AA6
:102572007808F1007708F000BE2A08002200270838
:102582002000A500220026082000A4002200250821
:102592002000A300220024082000A2007308A50046
:1025A2007208A4007108A3007008A2002208F400B7
:1025B2002308F5002408F6002508F7001730F7363F
:1025C200F60CF50CF40C890BE02AFF307405A00020
:1025D20000307505A10020082104031DF12AF22A0A
:1025E200152B2208F4002308F5002408F60025081C
:1025F200F7000130F435F50DF60DF70D890BFB2AC6
:102602007708760475047404031D082B092B0E2B1E
:102612000230F0000030F100412B0330F0000030B6
:10262200F100412B412B412B200A2104031D1A2BBF
:102632001B2B3C2B2208F4002308F5002408F6008B
:102642002508F7000930F435F50DF60DF70D890B65
:10265200242B77087604750474040319312B332B69
:102662000130342B0030F800F9017808F0007908C5
:10267200F100412B412B0430F0000030F100412BDE
:1026820008007008F4007108F5007208F60073087B
:10269200F7000310760D770DF8007808FA007A0833
:1026A200031D542B552B5F2B0030F3000030F2003A
:1026B2000030F1000030F000D52BD52B7008F4006B
:1026C2007108F5007208F6007308F7001F30F7363C
:1026D200F60CF50CF40C890B682B7408F8007808DA
:1026E200F900F217FF30F005FF30F105FF30F20577
:1026F2000030F3059630FA02FA1F802B812BA42BAF
:102702007A08803A973E0318872B882B932B003048
:10271200F3000030F2000030F1000030F000D52B61
:10272200D52B932B0130F336F20CF10CF00C890B04
:10273200942B0130F4007408FA07031DA12BA22B7D
:10274200932BC52BC52B20307A02031CA92BAA2B55
:10275200BE2B0030F3000030F2000030F1000030F8
:10276200F000D52BD52BBE2B0130F035F10DF20D3B
:10277200F30D890BB62B0130FA027A08031DC22B26
:10278200C32BB52BC52BC52B79080319C92BCA2B13
:10279200D52BF009F109F209F309F00A0319F10A3C
:1027A2000319F20A0319F30A080000302000350564
:1027B200BD0000303605BE0080303705BF007F30D7
:1027C2003805C00040083F043E043D04031DEA2BC7
:1027D200EB2BF32B0030B8000030B7000030B6000E
:1027E2000030B50000303905BD0000303A05BE00AA
:1027F20080303B05BF007F303C05C00040083F04ED
:102802003E043D04031D062C072C102C0030BC0096
:102812000030BB000030BA000030B900102CB81FE5
:10282200132C142C3C2C0030BD000030BE000030B4
:10283200BF008030C0003509C1003609C200370927
:10284200C3003809C400C10A0319C20A0319C30A22
:102852000319C40A4108BD074208BE3D4308BF3DF3
:102862004408C03D4008B8003F08B7003E08B60023
:102872003D08B5003C2CBC1F3F2C402C682C00307E
:10288200BD000030BE000030BF008030C0003909FA
:10289200C1003A09C2003B09C3003C09C400C10A95
:1028A2000319C20A0319C30A0319C40A4108BD075E
:1028B2004208BE3D4308BF3D4408C03D4008BC003D
:1028C2003F08BB003E08BA003D08B900682C8030C2
:1028D200B8068030BC063C083802031D7A2C3B083F
:1028E2003702031D7A2C3A083602031D7A2C390866
:1028F200350203187D2C7E2C802C0310832C0314AC
:10290200832C832C08002000A800280803198A2C95
:102912008B2C9F2CA31F8E2C8F2C9F2C2009AA005E
:102922002109AB002209AC002309AD00AA0A031950
:10293200AB0A0319AC0A0319AD0AA72C2308AD0090
:102942002208AC002108AB002008AA0023082204B8
:1029520021042004031DAE2CAF2CB92C0030A3009F
:102962000030A2000030A1000030A000382D382D28
:102972009630A4002408A900CA2C0130A40024081F
:10298200A9070130AD36AC0CAB0CAA0C890BC32CD9
:10299200CA2CFE302D05031DCF2CD02CBE2CE52CCD
:1029A200E52C0130A4002408A9070130AA07003051
:1029B200AB3D0030AC3D0030AD3D0130AD36AC0C2E
:1029C200AB0CAA0C890BDF2CFF302D05031DEA2C62
:1029D200EB2CD22CF72CF72C0130A9020130AA35AE
:1029E200AB0DAC0DAD0D890BF02CF72CAC1BFA2CFA
:1029F200FB2C022D023029020318002D012DED2C93
:102A0200022D2918052D062D0E2DFF30AA05FF30A7
:102A1200AB057F30AC05FF30AD050310A90C2908CA
:102A2200A400A501A601A7011830A435A50DA60D85
:102A3200A70D890B162D2408AA042508AB04260825
:102A4200AC042708AD0428080319282D292D2F2DA1
:102A5200A31F2C2D2D2D2F2DAD172F2D2D08A300AB
:102A62002C08A2002B08A1002A08A000382D08007B
:102A72009F312A2795313D2D20001813422D422DDA
:102A8200422D20001817452D0032472D2000181323
:102A92004A2D2E0011100030F000F1009F313A272C
:102AA20095319E31F5269531562D2E00111C5A2D49
:102AB2005B2D562D5C2D43302000B1009430B000C8
:102AC2000030AF000030AE009F317A279531700898
:102AD2002200B3007108B400B501B6013608200027
:102AE200A300220035082000A200220034082000A2
:102AF200A100220033082000A00000309431842479
:102B0200953120002308B5002208B4002108B30043
:102B12002008B2009631212695312000310822008A
:102B2200BA00200030082200B90020002F0822003D
:102B3200B80020002E082200B70000302100E90072
:102B42009830EA0022003A082100EE0022003908FB
:102B52002100ED00220038082100EC002200370895
:102B62002100EB009F31BA27953142302000B1009D
:102B7200E830B0000030AF000030AE009F317A275D
:102B8200953170082200B3007108B400B501B60196
:102B920036082000A300220035082000A2002200EF
:102BA20034082000A100220033082000A0000030D9
:102BB20094318424953120002308B5002208B40002
:102BC2002108B3002008B200963121269531200059
:102BD20031082200BA00200030082200B90020008B
:102BE2002F082200B80020002E082200B70016305D
:102BF2002100E9009830EA0022003A082100EE00A4
:102C0200220039082100ED00220038082100EC00E2
:102C1200220037082100EB009F31BA27953102309C
:102C22002200B4004530B300A930890B162EB30B35
:102C3200162EB40B162E0032422D422D8031022860
:102C4200200035088039B6003608BF003535B60099
:102C52003608C600B41F2E2E2F2E312E4614312ECA
:102C620046080319352E362E472E460A031D3A2EE4
:102C72003B2E442E0030B5000030B4000030B300CB
:102C82000030B200442EB417B501502E0030B5000A
:102C92000030B4000030B3000030B200502E3108D2
:102CA2008039B6003608BF063135B6003608C7008F
:102CB200B01F5C2E5D2E5F2E47145F2E470803194E
:102CC200632E642E752E470A031D682E692E722EFE
:102CD2000030B1000030B0000030AF000030AE0074
:102CE200722EB017B1017D2E0030B1000030B0005D
:102CF2000030AF000030AE00310830042F042E0443
:102D0200031D842E852E9F2E0030B5000030B400A6
:102D12000030B3000030B2008030B4047F30B5041C
:102D22003F08B6003608B5043508B1003408B000D3
:102D32003308AF003208AE00FF2FFF2F4608031DF5
:102D4200A32EA42EB62E0030B5000030B400003001
:102D5200B3000030B2003508B1003408B0003308C7
:102D6200AF003208AE00FF2FFF2F4708B600B701B1
:102D7200B609B709B60A0319B70A46083607B800F2
:102D820037080318370AB90038087F3EC000003000
:102D9200393DC1003508BE003408BD003308BC000F
:102DA2003208BB000030B5000030B4000030B30080
:102DB2000030B2000030C5000030C4000030C30053
:102DC2000030C200C701272F47080319E92EEA2E57
:102DD200062F0130BB35BC0DBD0DBE0D890BEB2E90
:102DE2000130B235B30DB40DB50D890BF22EC51FEE
:102DF200FB2EFC2EFE2E3214FE2E0130C235C30DE8
:102E0200C40DC50D890BFF2E062F31083E02031D8E
:102E1200142F30083D02031D142F2F083C02031DFE
:102E2200142F2E083B02031C172F182F222F451791
:102E32002E08BB022F08BC3B3008BD3B3108BE3B0D
:102E4200222F0130B6003608C707272F1A30470253
:102E5200031C2C2F2D2FE52E2E2F3E083D043C0463
:102E62003B040319352F362F522F4214522F522F63
:102E72000130B235B30DB40DB50D890B3A2FC51F14
:102E8200432F442F462F3214462F0130C235C30D33
:102E9200C40DC50D890B472FFF30C007FF30C13D60
:102EA200522FB41F552F562F392F572FC701C51F29
:102EB2005B2F5C2F7C2FFF304205B600FF304305AD
:102EC200B700FF304405B8007F304505B900390826
:102ED20038043704360403196F2F702F732FC7017C
:102EE200C70A7C2F321C762F772F7C2FC701C70A87
:102EF2007C2F7C2F7C2F47080319802F812FAB2F2B
:102F02000130B2070030B33D0030B43D0030B53D72
:102F1200351C8C2F8D2FAB2F3208B6003308B7002B
:102F22003408B8003508B9000130BA00B937B80C16
:102F3200B70CB60CBA0B972F3908B5003808B40095
:102F42003708B3003608B2000130C0070030C13D77
:102F5200AB2FAB2F4108803AB60080303602031DFA
:102F6200B42FFF304002031CB72FB82FC52FFF30FC
:102F72002000C0000030C1000030B5000030B400B5
:102F82000030B3000030B20020004108803AB600A1
:102F920080303602031DCF2F013040020318D22F9A
:102FA200D32FDF2F2000C001C1010030B500003057
:102FB200B4000030B3000030B200BF01200040086E
:102FC200B6003608C600461CE72FE82FEA2FB417D2
:102FD200EE2F7F30B6003608B4054636B600360806
:102FE200B5003F08B6003608B5043508B10034080C
:102FF200B0003308AF003208AE00FF2F080044349F
:1030020069347334743461346E3463346534203417
:103012003D34203425346634203469346E346334CC
:103022006834653473340A34003444346934733494
:10303200743461346E346334653420343D34203466
:1030420025346634203463346D340A340034493410
:103052004E34463400344E3441344E3400346934F4
:103062006E34663400346E3461346E3400346C3441
:04307200663400348C
:103DEA0024008F150800F10071089F3111279E31B8
:103DFA0008002F0096019701980199019A019B01E9
:103E0A000800083022009F0090309D0024309E0058
:103E1A00CF309B009C010800F000132F2E000F1ECC
:103E2A00172F182F132F192F700822009A00080035
:103E3A0073087204710470040319242F252F282F84
:103E4A008030F306282F292F08009E31FE269F3145
:103E5A00883101209F31803104209F319F314C27C6
:103E6A009F319F3106279F31080024000E1D3E2FE7
:103E7A003F2F462F0E1071088D0070088C000E140B
:103E8A004B2F71088D0070088C004B2F0800D03022
:103E9A0024008F009001023091008D018C010D08E1
:103EAA002200BC0024000C082200BB002E001010C7
:103EBA00013024008E0008007008BF3EF200FF3077
:103ECA00713DF300003073021A3003197202031CA9
:103EDA006F2F712F0130722F0030F400F501740832
:103EEA00F0007508F100792F080024008E140C08E0
:103EFA00F2007208FA000D08F2007208F9007A0856
:103F0A00F200F3017908F400F5017408F500F401F0
:103F1A0072087404F70073087504F8007808F10051
:103F2A007708F000982F080080302000B8063C0877
:103F3A00F3003B08F2003A08F1003908F0003808AB
:103F4A00F7003708F6003608F5003508F4008D3119
:103F5A0087259F3173082000B8007208B7007108DE
:103F6A00B6007008B500B92F0800EB302100EF0049
:103F7A006F082200B20021006A082000EE0021002A
:103F8A0069082000ED0032302100EF006F082000A0
:103F9A00EF0000309031B5209F3120006E082200DA
:103FAA00B10020006D082200B000DB2F0800F700E6
:103FBA007108F5007008F4007708F2007208F6003C
:103FCA00E72FE72F7608860001308700F60A750882
:103FDA00F3007408F200F40A0319F50A720884005F
:103FEA00730885000008C03F8908031DFD2FFE2FB6
:063FFA00E72FFF2F080075
:020000040001F9
:0A000E00EC3FFF3F9F3FFF3FFF3F25
:00000001FF
