:020000040000FA
:08000000803102288731EF2F47
:100ADE002F0096019701980199019A019B01080038
:100AEE00623031008D008F0191010230930092012E
:100AFE000800FE0012001E000130FE020030FF3B17
:100B0E007F087E04031D812D003485316F258531CC
:100B1E008531C42585318531772585318531AE25E1
:100B2E0085310800F300730821009E0093171313FC
:100B3E0013140000A22D21001318A62DA72DA22DEF
:100B4E00A82D0D08F1000C08F000AD2D08002200B4
:100B5E008E018F0190019101920193018D0121006F
:100B6E009E019B0194019501960197019A019901AD
:100B7E009801843093009D010800200096011F30DB
:100B8E0097004C309800FF309100C0309200033037
:100B9E00930003303E00CE00C030C300FF30B800DB
:100BAE00E501C401B901CF01BA01C501D001FF3081
:100BBE00BB00FF30C600FF30D1000800F401F50184
:100BCE00E82D701CEB2DEC2DF02D7208F407730838
:100BDE00F53D0130F235F30D890BF12D0130F13673
:100BEE00F00C890BF62D70087104031DFF2D002EDD
:100BFE00E82D012E7508F1007408F000062E08008D
:100C0E00FA007A08F600F7017608F0007708F1008E
:100C1E000730F2000030F3008531E5258631F430DF
:100C2E00F8002230F90070087807FB007108793D52
:100C3E00FC007B0886007C088700010C2000031C4A
:100C4E001811031818150130FB070030FC3D7B0806
:100C5E0086007C088700010C031C98110318981558
:100C6E000130FB070030FC3D7B0886007C088700C6
:100C7E00010C031C9711031897150130FB07003068
:100C8E00FC3D7B0886007C088700010C031C971036
:100C9E00031897140130FB070030FC3D7B088600DB
:100CAE007C088700010C031C171003181714013061
:100CBE00FB070030FC3D7B0886007C088700010C9A
:100CCE00031C1813031818170130FB070030FC3DE6
:100CDE007B0886007C088700010C031C1712031882
:100CEE0017160130FB070030FC3D080085318C25BE
:100CFE008631B0302000A00020083E00D604CB166E
:100D0E00882E200098178C2E8C2E98168F2E8F2EB4
:100D1E001816922E922E9716942E1711962E043088
:100D2E0085319925863170082000A0007108A10038
:100D3E000530A136A00C890BA02E2008043EA2007F
:100D4E002208FD00AA2E9716AD2EAD2E9813AF2EAB
:100D5E008230300094007D08863107268631FA30C5
:100D6E000032890BB72EBB2E20009817BF2EBF2E38
:100D7E009812C12E8130300094007D0886310726EE
:100D8E008631FA300032890BC92ECD2E20009816EE
:100D9E00D12ED12E1812D32E8030300094007D0823
:100DAE00863107268631FA300032890BDB2EDF2E94
:100DBE0020001816E32EE32E9712E52E3000940134
:100DCE007D08863107268631FA300032890BEC2EEB
:100DDE00962E962E803102280134013401340134CE
:100DEE000134013400340034013401340034003451
:100DFE000034003401340134003401340134003441
:100E0E00013401340134013401340034003401342E
:100E1E00003401340134003400340134013401341F
:100E2E00003401340134003401340134013400340F
:100E3E0001340134013401340134013401340134FC
:100E4E0000340034003400340134013401340134F0
:100E5E0001340134013401340134013401340034DD
:100E6E0001340134013401340134003401340134CD
:100E7E0001340034003401340134013401340134BE
:100E8E0000340034003401340134003401340034B1
:100E9E00013401340134013400340134013400349E
:100EAE00003401340134013401340134003400348F
:100EBE00003401340134013401340034013401347E
:100ECE00013401340034003401340134003401346F
:100EDE000134013400340034003400340134013460
:100EEE000034003401340134013401340034003450
:100EFE00013400340134003401340134013400343F
:100F0E00003400340134013401340034013401342E
:100F1E000034013400340134003400340034013420
:100F2E00003401340034013400340034013401340F
:100F3E0001340034013401340134003400340134FE
:100F4E0001340134013401340134003400340134ED
:100F5E0001340034003400340034013400340134E0
:100F6E0001340034013401340034013401340034CE
:100F7E0000340034013401340134013400340034BF
:100F8E0001340134013400340034003401340034AF
:100F9E00013400340134003400340134013401349E
:100FAE00013401340134013400340034013400348E
:100FBE00003401340034013401340134003401347E
:100FCE00013401340134003401340134003401346D
:100FDE00F330840086308500F4308600223087009E
:100FEE000030FF00FC3085318025873120008631AE
:020FFE007D2E46
:020000040001F9
:0A000E00EC3FFF3F9F3FFF3FFF3F25
:00000001FF
