:020000040000FA
:08000000803102288731EF2F47
:100BF8002F0096019701980199019A019B0108001D
:100C0800623031008D008F01910102309300920112
:100C18000800FE0012001E000130FE020030FF3BFB
:100C28007F087E04031D0E2E00348531FC25863195
:100C380086315126863186310426863186313B2617
:100C480086310800F300730821009E0093171313E0
:100C5800131400002F2E21001318332E342E2F2E9C
:100C6800352E0D08F1000C08F0003A2E080022007D
:100C78008E018F0190019101920193018D01210054
:100C88009E019B0194019501960197019A01990192
:100C98009801843093009D010800200096011F30C0
:100CA80097004C309800FF309100C030920003301C
:100CB800930003303E00CE00C030C300FF30B800C0
:100CC800E501C401B901CF01BA01C501D001FF3066
:100CD800BB00FF30C600FF30D1000800F401F50169
:100CE800752E701C782E792E7D2E7208F4077308E5
:100CF800F53D0130F235F30D890B7E2E0130F136CA
:100D0800F00C890B832E70087104031D8C2E8D2E18
:100D1800752E8E2E7508F1007408F000932E0800C9
:100D28000134013401340134013401340034003415
:100D38000134013400340034003400340134013407
:100D480000340134013400340134013401340134F5
:100D580001340034003401340034013401340034E7
:100D680000340134013401340034013401340034D6
:100D780001340134013400340134013401340134C4
:100D880001340134013401340034003400340034B7
:100D980001340134013401340134013401340134A3
:100DA8000134013401340034013401340134013494
:100DB8000134003401340134013400340034013486
:100DC8000134013401340134003400340034013476
:100DD8000134003401340034013401340134013465
:100DE8000034013401340034003401340134013456
:100DF8000134013400340034003401340134013446
:100E0800863119268731B0302000A00020083E0026
:100E1800D604CB160F2F20009817132F132F9816D0
:100E2800162F162F1816192F192F97161B2F171153
:100E38001D2F043086312626873170082000A00037
:100E48007108A1000630A136A00C890B272F2008B5
:100E5800A2002208FD00302F9716332F332F981346
:100E6800352F8230300094007D088731792787310B
:100E7800FA300032890B3D2F412F20009817452F5B
:100E8800452F9812472F8130300094007D08873114
:100E980079278731FA300032890B4F2F532F2000E2
:100EA8009816572F572F1812592F8030300094005A
:100EB8007D08873179278731FA300032890B612F15
:100EC800652F20001816692F692F97126B2F300095
:100ED80094017D08873179278731FA300032890BF0
:100EE800722F1D2F1D2F80310228FA007A08F60074
:100EF800F7017608F0007708F1000730F2000030BB
:100F0800F3008631722687318030F8002330F900EB
:100F180070087807FB007108793DFC007B088600A3
:100F28007C088700010C2000031C181103181815F1
:100F38000130FB070030FC3D7B0886007C088700F9
:100F4800010C031C9811031898150130FB07003099
:100F5800FC3D7B0886007C088700010C031C971168
:100F6800031897150130FB070030FC3D7B0886000D
:100F78007C088700010C031C971003189714013094
:100F8800FB070030FC3D7B0886007C088700010CCD
:100F9800031C1710031817140130FB070030FC3D21
:100FA8007B0886007C088700010C031C18130318B3
:100FB80018170130FB070030FC3D7B0886007C08D1
:100FC8008700010C031C1712031817160130FB07C2
:100FD8000030FC3D08009430840086308500803065
:100FE8008600233087000030FF00703086310D26E0
:080FF800873120008731042F2E
:020000040001F9
:0A000E00EC3FFF3F9F3FFF3FFF3F25
:00000001FF
