:020000040000FA
:08000000803102288731EF2F47
:100BF0002F0096019701980199019A019B01080025
:100C0000623031008D008F0191010230930092011A
:100C10000800FE0012001E000130FE020030FF3B03
:100C20007F087E04031D0A2E00348531F8258631A5
:100C300086314D268631863100268631863137262B
:100C400086310800F300730821009E0093171313E8
:100C5000131400002B2E210013182F2E302E2B2EB4
:100C6000312E0D08F1000C08F000362E080022008D
:100C70008E018F0190019101920193018D0121005C
:100C80009E019B0194019501960197019A0199019A
:100C90009801843093009D010800200096011F30C8
:100CA00097004C309800FF309100C0309200033024
:100CB000930003303E00CE00C030C300FF30B800C8
:100CC000E501C401B901CF01BA01C501D001FF306E
:100CD000BB00FF30C600FF30D1000800F401F50171
:100CE000712E701C742E752E792E7208F4077308FD
:100CF000F53D0130F235F30D890B7A2E0130F136D6
:100D0000F00C890B7F2E70087104031D882E892E2C
:100D1000712E8A2E7508F1007408F0008F2E0800DD
:100D2000013401340134013401340134003400341D
:100D3000013401340034003400340034013401340F
:100D400000340134013400340134013401340134FD
:100D500001340034003401340034013401340034EF
:100D600000340134013401340034013401340034DE
:100D700001340134013400340134013401340134CC
:100D800001340134013401340034003400340034BF
:100D900001340134013401340134013401340134AB
:100DA000013401340134003401340134013401349C
:100DB000013400340134013401340034003401348E
:100DC000013401340134013400340034003401347E
:100DD000013400340134003401340134013401346D
:100DE000003401340134003400340134013401345E
:100DF000013401340034003400340134013401344E
:100E0000FA007A08F600F7017608F0007708F1009A
:100E10000730F2000030F30086316E2687318030D3
:100E2000F8002330F90070087807FB007108793D5D
:100E3000FC007B0886007C088700010C2000031C56
:100E40001811031818150130FB070030FC3D7B0812
:100E500086007C088700010C031C98110318981564
:100E60000130FB070030FC3D7B0886007C088700D2
:100E7000010C031C9711031897150130FB07003074
:100E8000FC3D7B0886007C088700010C031C971042
:100E9000031897140130FB070030FC3D7B088600E7
:100EA0007C088700010C031C17100318171401306D
:100EB000FB070030FC3D7B0886007C088700010CA6
:100EC000031C1813031818170130FB070030FC3DF2
:100ED0007B0886007C088700010C031C171203188E
:100EE00017160130FB070030FC3D0800863115263F
:100EF00087314C302000A00020083E00D7041F306E
:100F00002000A00020083E00CC04862F2000981767
:100F10008A2F8A2F98168D2F8D2F1816902F902F8D
:100F20009716922F171104308631222687317008C8
:100F30002000A0007108A1000630A136A00C890B8A
:100F40009D2F2008A2002208FD00A62F9716A92F8A
:100F5000A92F9813AB2F8230300094007D08873181
:100F600000278731FA300032890BB32FB72F2000CA
:100F70009817BB2FBB2F9812BD2F813030009400E3
:100F80007D08873100278731FA300032890BC52F61
:100F9000C92F20009816CD2FCD2F1812CF2F8030BB
:100FA000300094007D08873100278731FA30003205
:100FB000890BD72FDB2F20001816DF2FDF2F97127A
:100FC000E12F300094017D08873100278731FA3006
:100FD0000032890BE82F932F932F80310228903015
:100FE0008400863085008030860023308700003002
:100FF000FF00703086310926873120008731762F37
:020000040001F9
:0A000E00EC3FFF3F9F3FFF3FFF3F25
:00000001FF
