:020000040000FA
:08000000803102288731ED2F49
:100DC40023008F01203090008D0108000034FF348F
:100DD4000034FF34003400342F0096019701980149
:100DE40099019A019B010800603031008D008F0148
:100DF4009101063093009201080080302700920090
:100E04007C309100C0309000303024009F040800F2
:100E140001302500960095019701F9309300920165
:100E24002E009011F43025009400080001302500B4
:100E34009C0011309B0002309D007C309900980189
:100E44002E009012F03025009A0008008631EE261C
:100E5400873187317E2787318631F626873186317F
:100E6400E226873187311827873187310A2787316E
:100E74008631FF2608007108F3007008F200F3368B
:100E8400F20CF336F20C7208270091007008033953
:100E9400F2000530F235FF3E031D4C2F72359000F1
:100EA4000800F5000130F002700A03190800183038
:100EB400F1007108F60076080739031D6C2F7508D8
:100EC400860087010108F1007108F4000130F10087
:100ED4007108F507F41B702FC030712FFE30F2003B
:100EE4000030F300720823008C000310F40D01306D
:100EF400F6020319542F5D2F2000960197019801E3
:100F0400FF309100DF30920077309300E7303E00ED
:100F1400CE00FF30C300FF30B800E501C401B901C1
:100F2400CF01BA01C501D001FF30BB00FF30C600BC
:100F3400FF30D10013303D00C50014303E00A30043
:100F440015309D000F30A70014303D00C600080086
:100F540087312827873120002308A6002408A7000A
:100F64002508A8002008A9002108AA002208AB002F
:100F74006430F0000030F10087313D278731F00103
:100F8400F00A26308731532787312930F80096300C
:100F9400F7007F30890BCC2FF70BCC2FF80BCC2F1D
:100FA4000000F330F0000130F10087313D27873134
:100FB400F001F00A29308731532787312930F800AE
:100FC4009630F7007F30890BE52FF70BE52FF80BF0
:100FD400E52F0000BA2FE830840086308500120027
:100FE400A0001200A1001200A2001200A30012002F
:0C0FF400A4001200A50020008731AA2FE5
:020000040001F9
:0A000E00EC3FFF3F9F3FFF3FFF3F25
:00000001FF
