:020000040000FA
:08000000803102288731F12F45
:100DC20023008F01203090008D010800FE001200E8
:100DD2001E00FE0BE82E00342F00960197019801A9
:100DE20099019A019B010800603031008D008F014A
:100DF20091010630930092010800FF340034003460
:100E02000034FF34003400340034FF34FF34FF3444
:100E1200FF348631ED2687318731172787318631B6
:100E2200F52687318631E1268731080020009601B8
:100E320097019801FF309100DF309200F730930064
:100E4200E7303E00CE00DF30C300FF30B800E501DE
:100E5200C401B9011830CF00BA01C501D001FF3079
:100E6200BB00FF30C600FF30D10013303D00C5008B
:100E720014303E00A30015309D0014303D00C60022
:100E82000800F600812F1830F1007108F700492F91
:100E920077080739031D4E2F4F2F5B2F76088600E8
:100EA20087010108F1007108F5000130F1007108B5
:100EB200F6075B2FF51B5E2F5F2F642FC030F30008
:100EC2000030F400682FFE30F3000030F4007308A5
:100ED20023008C000310F50D0130F702031D722F61
:100EE200732F492F742F1530F2004B30F100BE30B2
:100EF200890B792FF10B792FF20B792F0032812F89
:100F02000130F002700A031D872F882F442F892F8A
:100F1200080087310A2787312D308600003087008C
:100F220020308400003085000C30F80016001A00D2
:100F3200F80B972F2000AC019E2F20002C08203E9A
:100F420086008701010A031DA72FA82FD42F2C0882
:100F52000319AC2FAD2FC52F2C08FF3E203E860073
:100F6200870101080319B62FB72FBF2F2C08FF3EA8
:100F7200203E8600870101308102DD2F0130F8001A
:100F82007808AC07DD2FDD2F22080319C92FCA2FDD
:100F9200CD2F0130A202DD2F0130F8007808AC0716
:100FA200DD2FDD2FDD2F0130F8002C08203E8600DA
:100FB200870178088107DD2F03302C06031DE22FFD
:100FC200E32FE52FAC01E52F0430F8007808F0009C
:100FD20020308731422787319E2F9E2F8031022871
:100FE200FE308400863085002D3086000030870078
:0E0FF2000C308631E7268731200087318A2FA8
:020000040001F9
:0A000E00EC3FFF3F9F3FFF3FFF3F25
:00000001FF
