:020000040000FA
:08000000803102288731EF2F47
:100BC0002F0096019701980199019A019B01080055
:100BD000623031008D008F0191010230930092014B
:100BE0000800FE0012001E000130FE020030FF3B34
:100BF0007F087E04031DF22D00348531E025853108
:100C00008631352685318531E825853186311F26A7
:100C100085310800F300730821009E009317131319
:100C200013140000132E21001318172E182E132E44
:100C3000192E0D08F1000C08F0001E2E08002200ED
:100C40008E018F0190019101920193018D0121008C
:100C50009E019B0194019501960197019A019901CA
:100C60009801843093009D010800200096011F30F8
:100C700097004C309800FF309100C0309200033054
:100C8000930003303E00CE00C030C300FF30B800F8
:100C9000E501C401B901CF01BA01C501D001FF309E
:100CA000BB00FF30C600FF30D1000800F401F501A1
:100CB000592E701C5C2E5D2E612E7208F40773088D
:100CC000F53D0130F235F30D890B622E0130F1361E
:100CD000F00C890B672E70087104031D702E712EA5
:100CE000592E722E7508F1007408F000772E080056
:100CF000013401340134013401340134003400344E
:100D0000013401340034003400340034013401343F
:100D1000003401340134003401340134013401342D
:100D2000013400340034013400340134013400341F
:100D3000003401340134013400340134013400340E
:100D400001340134013400340134013401340134FC
:100D500001340134013401340034003400340034EF
:100D600001340134013401340134013401340134DB
:100D700001340134013400340134013401340134CC
:100D800001340034013401340134003400340134BE
:100D900001340134013401340034003400340134AE
:100DA000013400340134003401340134013401349D
:100DB000003401340134003400340134013401348E
:100DC000013401340034003400340134013401347E
:100DD0008531FD2586314C302000A00020083E00E2
:100DE000D6041F302000A00020083E00CB04F82EBF
:100DF00020009813FC2EFC2E9812FF2EFF2E1812A6
:100E0000022F022F9712042F043086310A268631D2
:100E100070082000A0007108A1000630A136A00CC7
:100E2000890B0E2F2008A2002208FD00172F971211
:100E30001A2F1A2F98171C2F300094017D08873124
:100E40005E278631FA300032890B232F272F2000AE
:100E500098132B2F2B2F98162D2F300094017D08DF
:100E600087315E278631FA300032890B342F382FD4
:100E7000200098123C2F3C2F18163E2F8030300057
:100E800094007D0887315E278631FA300032890B65
:100E9000462F4A2F200018124E2F4E2F9716502FF4
:100EA000300094017D0887315E278631FA300032A8
:100EB000890B572F042F042F80310228FA007A085B
:100EC000F600F7017608F0007708F1000730F2002D
:100ED0000030F3008631562687318030F800233009
:100EE000F90070087807FB007108793DFC007B0869
:100EF00086007C0887000109F600F60DF60D20003B
:100F000018087606FB39760698000130FB0700309A
:100F1000FC3D7B0886007C0887000109F600F60D81
:100F2000F60DF60D18087606F739760698000130AA
:100F3000FB070030FC3D7B0886007C088700010928
:100F4000F600F60DF60DF60D17087606F73976065B
:100F500097000130FB070030FC3D7B0886007C08D1
:100F600087000109F600F60D17087606FD397606AA
:100F700097000130FB070030FC3D7B0886007C08B1
:100F800087000109F60017087606FE3976069700F5
:100F90000130FB070030FC3D7B0886007C088700A1
:100FA0000109F600F60EF60DF60D18087606BF39A3
:100FB000760698000130FB070030FC3D7B08860078
:100FC0007C0887000109F600F60E17087606EF394F
:100FD000760697000130FB070030FC3D08007830B2
:100FE0008400863085008030860023308700003002
:100FF000FF0070308531F125873120008631E82EE1
:020000040001F9
:0A000E00EC3FFF3F9F3FFF3FFF3F25
:00000001FF
